{
  "contractName": "MediaManager",
  "abi": [
    {
      "constant": false,
      "inputs": [
        {
          "name": "_from",
          "type": "address"
        },
        {
          "name": "_to",
          "type": "address"
        },
        {
          "name": "_value",
          "type": "uint256"
        }
      ],
      "name": "transferFrom",
      "outputs": [
        {
          "name": "",
          "type": "bool"
        }
      ],
      "payable": false,
      "stateMutability": "nonpayable",
      "type": "function"
    },
    {
      "constant": false,
      "inputs": [],
      "name": "exit",
      "outputs": [],
      "payable": false,
      "stateMutability": "nonpayable",
      "type": "function"
    },
    {
      "constant": false,
      "inputs": [
        {
          "name": "newOwner",
          "type": "address"
        }
      ],
      "name": "transferOwnership",
      "outputs": [],
      "payable": false,
      "stateMutability": "nonpayable",
      "type": "function"
    },
    {
      "inputs": [
        {
          "name": "_manager",
          "type": "address"
        }
      ],
      "payable": false,
      "stateMutability": "nonpayable",
      "type": "constructor"
    }
  ],
  "bytecode": "0x6060604052341561000f57600080fd5b6040516020806104c583398101604052808051906020019091905050806000806101000a81548173ffffffffffffffffffffffffffffffffffffffff021916908373ffffffffffffffffffffffffffffffffffffffff16021790555033600160006101000a81548173ffffffffffffffffffffffffffffffffffffffff021916908373ffffffffffffffffffffffffffffffffffffffff16021790555050610409806100bc6000396000f300606060405260043610610057576000357c0100000000000000000000000000000000000000000000000000000000900463ffffffff16806323b872dd1461005c578063e9fad8ee146100d5578063f2fde38b146100ea575b600080fd5b341561006757600080fd5b6100bb600480803573ffffffffffffffffffffffffffffffffffffffff1690602001909190803573ffffffffffffffffffffffffffffffffffffffff16906020019091908035906020019091905050610123565b604051808215151515815260200191505060405180910390f35b34156100e057600080fd5b6100e86102aa565b005b34156100f557600080fd5b610121600480803573ffffffffffffffffffffffffffffffffffffffff1690602001909190505061033f565b005b6000806000809054906101000a900473ffffffffffffffffffffffffffffffffffffffff1673ffffffffffffffffffffffffffffffffffffffff163373ffffffffffffffffffffffffffffffffffffffff1614151561018157600080fd5b600160009054906101000a900473ffffffffffffffffffffffffffffffffffffffff1690508073ffffffffffffffffffffffffffffffffffffffff166323b872dd8686866000604051602001526040518463ffffffff167c0100000000000000000000000000000000000000000000000000000000028152600401808473ffffffffffffffffffffffffffffffffffffffff1673ffffffffffffffffffffffffffffffffffffffff1681526020018373ffffffffffffffffffffffffffffffffffffffff1673ffffffffffffffffffffffffffffffffffffffff1681526020018281526020019350505050602060405180830381600087803b151561028557600080fd5b6102c65a03f1151561029657600080fd5b505050604051805190509150509392505050565b6000809054906101000a900473ffffffffffffffffffffffffffffffffffffffff1673ffffffffffffffffffffffffffffffffffffffff163373ffffffffffffffffffffffffffffffffffffffff1614151561030557600080fd5b6000809054906101000a900473ffffffffffffffffffffffffffffffffffffffff1673ffffffffffffffffffffffffffffffffffffffff16ff5b6000809054906101000a900473ffffffffffffffffffffffffffffffffffffffff1673ffffffffffffffffffffffffffffffffffffffff163373ffffffffffffffffffffffffffffffffffffffff1614151561039a57600080fd5b806000806101000a81548173ffffffffffffffffffffffffffffffffffffffff021916908373ffffffffffffffffffffffffffffffffffffffff160217905550505600a165627a7a72305820027d00ac5ba5c074727c037b21ac74578a9fc6c08b9fc48ff4f051f84daafe5f0029",
  "source": "\npragma solidity ^0.4.18;\n\nimport './MediaToken.sol';\n\n/*\n * The MediaManager is a contract associated in 1-1 relationship with a MediaToken.\n * This contract allows its owner to run transferFrom on the associated token for any users.\n * It is created together with the token as part of the token initialization procedure, and\n * is expected to run only temporarily. It can be destructed, and then no new managing contract\n * will be associated with the token.\n * This mechanism has been added to allow hybrid-model deployment, when trusted non-blockchain\n * application evaluates various conditions and manages transfers accordingly.\n * Users can opt-out from this mechanism, in which case the application can't transfer anything\n * on their behalf.\n */\ncontract MediaManager {\n    address private owner;\n    address private token;\n\n    /*\n     * MediaManager constructor. It is expected that constructor is run from the Token\n     * initialization procedure, as it uses msg.sender as token address.\n     * @param _manager the new owner of the contract.\n     */\n    function MediaManager(address _manager)public {\n        owner = _manager;\n        token = msg.sender;\n    }\n\n    /*\n     * Modifier. Any method can be called only by the owner\n     */\n    modifier onlyOwner() {\n        if (msg.sender != owner) {\n            revert();\n        }\n        _;\n    }\n\n    /*\n     * Executes transferFrom on the associated token. Unless the user has opt-outed, the token\n     * shall allow such transferFrom set out of the MediaManager contract.\n     * @param _from Address to transfer from\n     * @param _to Address to which funds are transferred\n     * @param _value Number of tokes to be transfered\n     * @return True on success\n     */\n    function transferFrom(address _from, address _to, uint256 _value) public onlyOwner returns (bool){\n        MediaToken mt = MediaToken(token);\n        return mt.transferFrom(_from, _to, _value);\n    }\n\n    /*\n     * Transfer ownership to new owner\n     * @param newOwner New owner. No validity check is performed, execute this method with great care!\n     */\n    function transferOwnership(address newOwner)public onlyOwner{\n        owner=newOwner;\n    }\n\n    /*\n     * Destroy this contract. Execute when switching from hybrid model to fully blockchain model.\n     */\n    function exit() public onlyOwner{\n        selfdestruct(owner);\n    }\n}\n",
  "sourcePath": "/Users/ejossev/working/codec/media-token/contracts/MediaManager.sol",
  "compiler": {
    "name": "solc",
    "version": "0.4.18+commit.9cf6e910.Emscripten.clang"
  },
  "schemaVersion": "1.0.1",
  "updatedAt": "2018-02-22T14:06:51.241Z"
}