{
  "contractName": "Promotion",
  "abi": [
    {
      "constant": true,
      "inputs": [],
      "name": "getProvider",
      "outputs": [
        {
          "name": "",
          "type": "address"
        }
      ],
      "payable": false,
      "stateMutability": "view",
      "type": "function"
    },
    {
      "constant": false,
      "inputs": [
        {
          "name": "forwarder",
          "type": "address"
        }
      ],
      "name": "addForwarder",
      "outputs": [],
      "payable": false,
      "stateMutability": "nonpayable",
      "type": "function"
    },
    {
      "constant": false,
      "inputs": [
        {
          "name": "payout",
          "type": "address"
        },
        {
          "name": "interaction",
          "type": "uint32"
        },
        {
          "name": "additionalData",
          "type": "string"
        },
        {
          "name": "url",
          "type": "string"
        },
        {
          "name": "referrers",
          "type": "address[4]"
        }
      ],
      "name": "recordForwardedInteraction",
      "outputs": [],
      "payable": false,
      "stateMutability": "nonpayable",
      "type": "function"
    },
    {
      "constant": false,
      "inputs": [
        {
          "name": "user",
          "type": "address"
        },
        {
          "name": "interaction",
          "type": "uint32"
        },
        {
          "name": "additionalData",
          "type": "string"
        },
        {
          "name": "url",
          "type": "string"
        },
        {
          "name": "referrers",
          "type": "address[4]"
        }
      ],
      "name": "recordInteraction",
      "outputs": [],
      "payable": false,
      "stateMutability": "nonpayable",
      "type": "function"
    },
    {
      "constant": false,
      "inputs": [],
      "name": "endPromotion",
      "outputs": [],
      "payable": false,
      "stateMutability": "nonpayable",
      "type": "function"
    },
    {
      "constant": true,
      "inputs": [
        {
          "name": "user",
          "type": "address"
        }
      ],
      "name": "checkAuthority",
      "outputs": [
        {
          "name": "",
          "type": "bool"
        }
      ],
      "payable": false,
      "stateMutability": "view",
      "type": "function"
    },
    {
      "constant": false,
      "inputs": [
        {
          "name": "authority",
          "type": "string"
        }
      ],
      "name": "addVerificationAuthority",
      "outputs": [],
      "payable": false,
      "stateMutability": "nonpayable",
      "type": "function"
    },
    {
      "constant": true,
      "inputs": [],
      "name": "rewardPeriod",
      "outputs": [
        {
          "name": "",
          "type": "uint32"
        }
      ],
      "payable": false,
      "stateMutability": "view",
      "type": "function"
    },
    {
      "constant": false,
      "inputs": [
        {
          "name": "allocation",
          "type": "uint256"
        },
        {
          "name": "duration",
          "type": "uint256"
        }
      ],
      "name": "addBudget",
      "outputs": [],
      "payable": false,
      "stateMutability": "nonpayable",
      "type": "function"
    },
    {
      "inputs": [
        {
          "name": "start",
          "type": "uint256"
        },
        {
          "name": "duration",
          "type": "uint256"
        },
        {
          "name": "budget",
          "type": "uint256"
        },
        {
          "name": "url",
          "type": "string"
        },
        {
          "name": "allowLikeIndifferent",
          "type": "bool"
        },
        {
          "name": "allowShare",
          "type": "bool"
        },
        {
          "name": "allowConsumption",
          "type": "bool"
        },
        {
          "name": "allowSurvey",
          "type": "bool"
        },
        {
          "name": "token",
          "type": "address"
        },
        {
          "name": "parent",
          "type": "address"
        },
        {
          "name": "identityVerificationService",
          "type": "address"
        },
        {
          "name": "referralShare",
          "type": "uint256"
        },
        {
          "name": "referralDecrease",
          "type": "uint256"
        }
      ],
      "payable": false,
      "stateMutability": "nonpayable",
      "type": "constructor"
    },
    {
      "anonymous": false,
      "inputs": [
        {
          "indexed": false,
          "name": "interaction",
          "type": "uint256"
        },
        {
          "indexed": true,
          "name": "user",
          "type": "address"
        },
        {
          "indexed": true,
          "name": "url",
          "type": "string"
        },
        {
          "indexed": false,
          "name": "additionalData",
          "type": "string"
        }
      ],
      "name": "PromotionInteraction",
      "type": "event"
    },
    {
      "anonymous": false,
      "inputs": [
        {
          "indexed": false,
          "name": "interaction",
          "type": "uint256"
        },
        {
          "indexed": true,
          "name": "payout",
          "type": "address"
        },
        {
          "indexed": true,
          "name": "url",
          "type": "string"
        },
        {
          "indexed": false,
          "name": "additionalData",
          "type": "string"
        }
      ],
      "name": "PromotionForwardedInteraction",
      "type": "event"
    }
  ],
  "bytecode": "0x606060405234156200001057600080fd5b6040516200178a3803806200178a833981016040528080519060200190919080519060200190919080519060200190919080518201919060200180519060200190919080519060200190919080519060200190919080519060200190919080519060200190919080519060200190919080519060200190919080519060200190919080519060200190919050506000620000a96200045c565b6064846064038e02811515620000bb57fe5b04915086601660006101000a81548173ffffffffffffffffffffffffffffffffffffffff021916908373ffffffffffffffffffffffffffffffffffffffff16021790555085601760006101000a81548173ffffffffffffffffffffffffffffffffffffffff021916908373ffffffffffffffffffffffffffffffffffffffff160217905550438f101515156200015057600080fd5b326000800160006101000a81548173ffffffffffffffffffffffffffffffffffffffff021916908373ffffffffffffffffffffffffffffffffffffffff1602179055508b60006001019080519060200190620001ae92919062000476565b508e60006002018190555073__promotionLibrary______________________6341adcc5a8f6000604051602001526040518263ffffffff167c01000000000000000000000000000000000000000000000000000000000281526004018082815260200191505060206040518083038186803b15156200022d57600080fd5b6102c65a03f415156200023f57600080fd5b50505060405180519050600060030160006101000a81548163ffffffff021916908363ffffffff16021790555081600060070181905550816000600801819055508a600060090160006101000a81548160ff02191690831515021790555089600060090160016101000a81548160ff02191690831515021790555088600060090160026101000a81548160ff02191690831515021790555087600060090160036101000a81548160ff0219169083151502179055508e6000600a0181905550818d036000600c0181905550836000600b0160006101000a81548163ffffffff021916908363ffffffff160217905550826000600d0160006101000a81548163ffffffff021916908363ffffffff1602179055508d8f018160000181815250508181602001818152505060006004018054806001018281620003819190620004fd565b91600052602060002090600202016000839091909150600082015181600001556020820151816001015550505084601960006101000a81548173ffffffffffffffffffffffffffffffffffffffff021916908373ffffffffffffffffffffffffffffffffffffffff1602179055506001601a60008873ffffffffffffffffffffffffffffffffffffffff1673ffffffffffffffffffffffffffffffffffffffff16815260200190815260200160002060006101000a81548160ff0219169083151502179055505050505050505050505050505050506200058c565b604080519081016040528060008152602001600081525090565b828054600181600116156101000203166002900490600052602060002090601f016020900481019282601f10620004b957805160ff1916838001178555620004ea565b82800160010185558215620004ea579182015b82811115620004e9578251825591602001919060010190620004cc565b5b509050620004f9919062000532565b5090565b8154818355818115116200052d576002028160020283600052602060002091820191016200052c91906200055a565b5b505050565b6200055791905b808211156200055357600081600090555060010162000539565b5090565b90565b6200058991905b80821115620005855760008082016000905560018201600090555060020162000561565b5090565b90565b6111ee806200059c6000396000f300606060405260043610610099576000357c0100000000000000000000000000000000000000000000000000000000900463ffffffff168063483d45bd1461009e5780635c41d2fe146100f35780636fd630e21461012c57806386da132b146102265780638aa9df1d14610320578063a700c20214610335578063d866913d14610386578063e88dc5b7146103e3578063f700abf114610418575b600080fd5b34156100a957600080fd5b6100b1610444565b604051808273ffffffffffffffffffffffffffffffffffffffff1673ffffffffffffffffffffffffffffffffffffffff16815260200191505060405180910390f35b34156100fe57600080fd5b61012a600480803573ffffffffffffffffffffffffffffffffffffffff16906020019091905050610470565b005b341561013757600080fd5b610224600480803573ffffffffffffffffffffffffffffffffffffffff1690602001909190803563ffffffff1690602001909190803590602001908201803590602001908080601f0160208091040260200160405190810160405280939291908181526020018383808284378201915050505050509190803590602001908201803590602001908080601f016020809104026020016040519081016040528093929190818152602001838380828437820191505050505050919080608001906004806020026040519081016040528092919082600460200280828437820191505050505091905050610529565b005b341561023157600080fd5b61031e600480803573ffffffffffffffffffffffffffffffffffffffff1690602001909190803563ffffffff1690602001909190803590602001908201803590602001908080601f0160208091040260200160405190810160405280939291908181526020018383808284378201915050505050509190803590602001908201803590602001908080601f016020809104026020016040519081016040528093929190818152602001838380828437820191505050505050919080608001906004806020026040519081016040528092919082600460200280828437820191505050505091905050610888565b005b341561032b57600080fd5b610333610c87565b005b341561034057600080fd5b61036c600480803573ffffffffffffffffffffffffffffffffffffffff16906020019091905050610d67565b604051808215151515815260200191505060405180910390f35b341561039157600080fd5b6103e1600480803590602001908201803590602001908080601f01602080910402602001604051908101604052809392919081815260200183838082843782019150505050505091905050610f48565b005b34156103ee57600080fd5b6103f6610fe5565b604051808263ffffffff1663ffffffff16815260200191505060405180910390f35b341561042357600080fd5b6104426004808035906020019091908035906020019091905050610fea565b005b60008060000160009054906101000a900473ffffffffffffffffffffffffffffffffffffffff16905090565b6000800160009054906101000a900473ffffffffffffffffffffffffffffffffffffffff1673ffffffffffffffffffffffffffffffffffffffff163373ffffffffffffffffffffffffffffffffffffffff161415156104ce57600080fd5b6001601a60008373ffffffffffffffffffffffffffffffffffffffff1673ffffffffffffffffffffffffffffffffffffffff16815260200190815260200160002060006101000a81548160ff02191690831515021790555050565b60011515601a60003373ffffffffffffffffffffffffffffffffffffffff1673ffffffffffffffffffffffffffffffffffffffff16815260200190815260200160002060009054906101000a900460ff16151514151561058857600080fd5b73__promotionLibrary______________________631e401f75856000601089601660009054906101000a900473ffffffffffffffffffffffffffffffffffffffff166040518663ffffffff167c0100000000000000000000000000000000000000000000000000000000028152600401808663ffffffff1663ffffffff1681526020018581526020018481526020018373ffffffffffffffffffffffffffffffffffffffff1673ffffffffffffffffffffffffffffffffffffffff1681526020018273ffffffffffffffffffffffffffffffffffffffff1673ffffffffffffffffffffffffffffffffffffffff1681526020019550505050505060006040518083038186803b151561069a57600080fd5b6102c65a03f415156106ab57600080fd5b50505073__promotionLibrary______________________63e18d8b166000836040518363ffffffff167c01000000000000000000000000000000000000000000000000000000000281526004018083815260200182600460200280838360005b8381101561072757808201518184015260208101905061070c565b505050509050019250505060006040518083038186803b151561074957600080fd5b6102c65a03f4151561075a57600080fd5b505050816040518082805190602001908083835b602083101515610793578051825260208201915060208101905060208303925061076e565b6001836020036101000a03801982511681845116808217855250505050505090500191505060405180910390208573ffffffffffffffffffffffffffffffffffffffff167fe3a5e7f9f99edfb9b8caad805d74aec03f61bc1c9ad62371a81dc24a325f7a478686604051808363ffffffff16815260200180602001828103825283818151815260200191508051906020019080838360005b8381101561084657808201518184015260208101905061082b565b50505050905090810190601f1680156108735780820380516001836020036101000a031916815260200191505b50935050505060405180910390a35050505050565b60011515601a60003373ffffffffffffffffffffffffffffffffffffffff1673ffffffffffffffffffffffffffffffffffffffff16815260200190815260200160002060009054906101000a900460ff161515148061091257508473ffffffffffffffffffffffffffffffffffffffff163273ffffffffffffffffffffffffffffffffffffffff16145b151561091d57600080fd5b61092685610d67565b151561093157600080fd5b73__promotionLibrary______________________63088cb0d1856000601089601760009054906101000a900473ffffffffffffffffffffffffffffffffffffffff16601660009054906101000a900473ffffffffffffffffffffffffffffffffffffffff166040518763ffffffff167c0100000000000000000000000000000000000000000000000000000000028152600401808763ffffffff1663ffffffff1681526020018681526020018581526020018473ffffffffffffffffffffffffffffffffffffffff1673ffffffffffffffffffffffffffffffffffffffff1681526020018373ffffffffffffffffffffffffffffffffffffffff1673ffffffffffffffffffffffffffffffffffffffff1681526020018273ffffffffffffffffffffffffffffffffffffffff1673ffffffffffffffffffffffffffffffffffffffff168152602001965050505050505060006040518083038186803b1515610a9957600080fd5b6102c65a03f41515610aaa57600080fd5b50505073__promotionLibrary______________________63e18d8b166000836040518363ffffffff167c01000000000000000000000000000000000000000000000000000000000281526004018083815260200182600460200280838360005b83811015610b26578082015181840152602081019050610b0b565b505050509050019250505060006040518083038186803b1515610b4857600080fd5b6102c65a03f41515610b5957600080fd5b505050816040518082805190602001908083835b602083101515610b925780518252602082019150602081019050602083039250610b6d565b6001836020036101000a03801982511681845116808217855250505050505090500191505060405180910390208573ffffffffffffffffffffffffffffffffffffffff167ffd5fb088636c5664ecb7be7a15c8bc3c19044be27059b49feaba9345935d41ed8686604051808363ffffffff16815260200180602001828103825283818151815260200191508051906020019080838360005b83811015610c45578082015181840152602081019050610c2a565b50505050905090810190601f168015610c725780820380516001836020036101000a031916815260200191505b50935050505060405180910390a35050505050565b73__promotionLibrary______________________6394edd9aa60006010601660009054906101000a900473ffffffffffffffffffffffffffffffffffffffff166040518463ffffffff167c0100000000000000000000000000000000000000000000000000000000028152600401808481526020018381526020018273ffffffffffffffffffffffffffffffffffffffff1673ffffffffffffffffffffffffffffffffffffffff168152602001935050505060006040518083038186803b1515610d5157600080fd5b6102c65a03f41515610d6257600080fd5b505050565b60008060006018805490501415610d815760019150610f42565b600090505b6018805490508163ffffffff161015610f3d57601960009054906101000a900473ffffffffffffffffffffffffffffffffffffffff1673ffffffffffffffffffffffffffffffffffffffff16630ade856360188363ffffffff16815481101515610dec57fe5b9060005260206000209001856000604051602001526040518363ffffffff167c010000000000000000000000000000000000000000000000000000000002815260040180806020018373ffffffffffffffffffffffffffffffffffffffff1673ffffffffffffffffffffffffffffffffffffffff168152602001828103825284818154600181600116156101000203166002900481526020019150805460018160011615610100020316600290048015610ee75780601f10610ebc57610100808354040283529160200191610ee7565b820191906000526020600020905b815481529060010190602001808311610eca57829003601f168201915b50509350505050602060405180830381600087803b1515610f0757600080fd5b6102c65a03f11515610f1857600080fd5b5050506040518051905015610f305760019150610f42565b8080600101915050610d86565b600091505b50919050565b6000800160009054906101000a900473ffffffffffffffffffffffffffffffffffffffff1673ffffffffffffffffffffffffffffffffffffffff163373ffffffffffffffffffffffffffffffffffffffff16141515610fa657600080fd5b60188054806001018281610fba919061107d565b916000526020600020900160008390919091509080519060200190610fe09291906110a9565b505050565b600281565b73__promotionLibrary______________________63a663551a600084846040518463ffffffff167c010000000000000000000000000000000000000000000000000000000002815260040180848152602001838152602001828152602001935050505060006040518083038186803b151561106557600080fd5b6102c65a03f4151561107657600080fd5b5050505050565b8154818355818115116110a4578183600052602060002091820191016110a39190611129565b5b505050565b828054600181600116156101000203166002900490600052602060002090601f016020900481019282601f106110ea57805160ff1916838001178555611118565b82800160010185558215611118579182015b828111156111175782518255916020019190600101906110fc565b5b5090506111259190611155565b5090565b61115291905b8082111561114e5760008181611145919061117a565b5060010161112f565b5090565b90565b61117791905b8082111561117357600081600090555060010161115b565b5090565b90565b50805460018160011615610100020316600290046000825580601f106111a057506111bf565b601f0160209004906000526020600020908101906111be9190611155565b5b505600a165627a7a7230582054533730f1d1fe141c7cc4693febe77fa6584f54eed8d47542b8e80c3684f66e0029",
  "source": "pragma solidity ^0.4.18;\n\nimport './InteractionsCounter.sol';\nimport './IdentityVerification.sol';\nimport './MediaTokenUser.sol';\nimport './MediaToken.sol';\nimport './Delegatable.sol';\n\n\n/*\n * promotionLibrary contains most of the code executed in the individual promotion contract. Only methods, where cost\n * of remote library call will be more expensive as deploying the code directly will stay inside the promotion\n * contracts.\n */\nlibrary promotionLibrary {\n\n    uint32 constant public rewardPeriod=2;\n\n    event Debug(string d1, string d2, uint u1, uint u2);\n\n    struct Budget{\n        uint switchTime;\n        uint allocation;\n    }\n\n    /* data about the individual promotion */\n    struct PromotionData{\n        address provider; //<who runs the promotion\n        string url;       //<identifier of the content being promoted\n        uint start;       //<starting block\n        uint32 duration;  //<promotion duration, in blocks\n        Budget[] budgets;\n        uint32 currentBudget;\n        uint budgetEnd;\n        uint remainingBudgetAllocation; //<the unspent part of the budget\n        uint remainingAllocation; //<the unspent part of total allocation\n        bool allowLikeIndifferent; //<list of allowed interactions\n        bool allowShare;\n        bool allowConsumption;\n        bool allowSurvey;\n        uint lastProcessedBlock; //block when the distribution happened last time.\n        uint32 referralShare;\n        uint referralBudget;\n        uint32 referralDecrease;\n        ReferralsData referrals;\n    }\n\n    struct ReferralsData{\n        mapping (address => uint64) referrerLevels;\n        address [] referrers;\n    }\n\n    enum InteractionType{\n        like,\n        indifferent,\n        share,\n        consumption,\n        survey\n    }\n\n\n\n    /*\n     * interactions recorded for further processing. This can be replaced with interactions in order to decrease storage costs.\n     */\n    struct InteractionRecord{\n        address user;\n        uint32 weight;\n        InteractionType recordEvent;\n    }\n\n    /*\n     * structure keeping all the interactions recorded. These has to be recorded in order to prevent abuses in form of\n     * multiple actions\n     */\n    struct InteractionRecords{\n        InteractionRecord[] records;\n        uint32 lastProcessed;\n        uint32 total;\n        mapping( address => bool ) _likeIndifferent;\n        mapping( address => bool ) _share;\n        mapping( address => bool ) _consumption;\n        mapping( address => bool ) _survey;\n    }\n\n    /*\n     * evaluate and record the short interaction. It can also process backlog of previous interactions, at the beginning of\n     * a block right after the reward period.\n     * @param interaction type of the interaction\n     * @param p PromotionData of the individual promotion\n     * @param r structure InteractionRecords keeping backlog of potentially unprocessed interactions. Used only in case of backlog processing.\n     * @param user User performing the given interaction\n     * @param intCounter Pointer to the interactions counter contract\n     * @param mediaToken Pointer to the media token contract\n     */\n    function getInteraction(uint32 interaction, PromotionData storage p, InteractionRecords storage r, address user, address intCounter, address mediaToken) public  {\n        InteractionsCounter ic = InteractionsCounter(intCounter);\n        uint32 interactions;\n        if(InteractionType(interaction) == InteractionType.share){\n            require (p.allowShare);\n            require( r._share[user] == false);\n            r._share[user] = true;\n            interactions = ic.addInteraction(uint32(InteractionsCounter.InteractionType.short));\n        }else if(InteractionType(interaction) == InteractionType.consumption){\n            require (p.allowConsumption);\n            require( r._consumption[user] == false);\n            r._consumption[user] = true;\n            interactions = ic.addInteraction(uint32(InteractionsCounter.InteractionType.medium));\n        }else if(InteractionType(interaction) == InteractionType.survey){\n            require (p.allowSurvey);\n            require( r._survey[user] == false);\n            r._survey[user] = true;\n            interactions = ic.addInteraction(uint32(InteractionsCounter.InteractionType.long));\n        }else{ //like or indifferent\n            require (p.allowLikeIndifferent);\n            require( r._likeIndifferent[user] == false);\n            r._likeIndifferent[user] = true;\n            interactions = ic.addInteraction(uint32(InteractionsCounter.InteractionType.short));\n        }\n        require (block.number >= p.start);\n        if(block.number >= p.lastProcessedBlock + rewardPeriod ){\n            processBacklog(p, r, mediaToken);\n            switchBudget(p);\n        }\n        if( block.number >= p.start + p.duration ){\n            //finishPromotion(url);\n            return;\n        }\n        InteractionRecord memory ir;\n        ir.user = user;\n        ir.recordEvent = InteractionType(interaction);\n        ir.weight = getWeight( interactions );\n\n\n        if(ir.weight > 0){ //omit interactions without weight, as they won't help postprocessing\n            r.records.push(ir);\n            r.total++;\n        }\n    }\n\n    function getForwardedInteraction(uint32 interaction, PromotionData storage p, InteractionRecords storage r, address payout, address mediaToken) public  {\n        if(InteractionType(interaction) == InteractionType.share){\n            require (p.allowShare);\n        }else if(InteractionType(interaction) == InteractionType.consumption){\n            require (p.allowConsumption);\n        }else if(InteractionType(interaction) == InteractionType.survey){\n            require (p.allowSurvey);\n        }else{ //like or indifferent\n            require (p.allowLikeIndifferent);\n        }\n        require (block.number >= p.start);\n        if(block.number >= p.lastProcessedBlock + rewardPeriod ){\n            processBacklog(p, r, mediaToken);\n            switchBudget(p);\n        }\n        if( block.number >= p.start + p.duration ){\n            //finishPromotion(url);\n            return;\n        }\n        InteractionRecord memory ir;\n        ir.user = payout;\n        ir.recordEvent = InteractionType(interaction);\n        ir.weight = 1;\n\n        r.records.push(ir);\n        r.total++;\n    }\n\n    function switchBudget(PromotionData storage d) internal{\n        if ( d.currentBudget+1 == d.budgets.length ) //we are in last budget already\n            return;\n        if (d.budgets[d.currentBudget].switchTime >= block.number) //no time to switch yet\n            return;\n        while( d.budgets[d.currentBudget].switchTime < block.number ){\n            d.currentBudget++;\n            d.remainingBudgetAllocation += d.budgets[d.currentBudget].allocation;\n        }\n        d.budgetEnd = d.budgets[d.currentBudget].switchTime;\n    }\n\n    /*\n     * Internal function to get weight of the given interaction (interaction) based on number of interactions from the interactions counter\n     */\n    function getWeight(uint32 count) internal pure returns(uint32){\n        if(count <= 10 ) return 200;\n        if(count <= 25 ) return 150;\n        if(count <= 50 ) return 100;\n        if(count <= 120 ) return 50;\n        if(count <= 300 ) return 25;\n        return 0;\n    }\n\n    /*\n     * At the first transaction after the end of the reward period process the interaction backlog and distribute rewards for the users.\n     * @param p promotionData of the individual promotion\n     * @param r structure InteractionRecords keeping backlog of unprocessed interactions.\n     * @param mediaToken Pointer to the media token contract\n     */\n    function processBacklog(PromotionData storage p, InteractionRecords storage r, address mediaToken) internal {\n        uint32 backlogSize = r.total - r.lastProcessed;\n        if(backlogSize == 0)\n            return;\n\n        uint newLastProcessedBlock = block.number - (( block.number - p.start ) % rewardPeriod );\n\n        MediaToken mt = MediaToken(mediaToken);\n        uint blocksToEnd;\n        if( block.number > p.budgets[p.currentBudget].switchTime)\n            blocksToEnd = rewardPeriod;\n        else\n            blocksToEnd = p.budgets[p.currentBudget].switchTime - newLastProcessedBlock + rewardPeriod;\n\n        uint totalWeight = 0;\n        for(uint i = r.lastProcessed; i< r.total; i++){\n            totalWeight += r.records[i].weight;\n        }\n        if(blocksToEnd>0 && totalWeight >0){\n            uint reward = (p.remainingBudgetAllocation * 100 * rewardPeriod / blocksToEnd) / totalWeight;\n            for(i = r.lastProcessed; i< r.total; i++){\n                uint actualReward = reward * r.records[i].weight / 100;\n                mt.transfer(r.records[i].user, actualReward );\n                p.remainingBudgetAllocation -= actualReward;\n                p.remainingAllocation -= actualReward;\n                delete r.records[i];\n            }\n        }\n        r.lastProcessed = r.total;\n        p.lastProcessedBlock = newLastProcessedBlock;\n    }\n\n    function processReferralBacklog(PromotionData storage p, address mediaToken) internal {\n        if(p.referralBudget == 0)\n            return;\n        MediaToken mt = MediaToken(mediaToken);\n        uint totalWeight = 0;\n        uint rewardPerPoint = 0;\n        for(uint i=0; i<p.referrals.referrers.length; i++){\n            totalWeight += p.referrals.referrerLevels[p.referrals.referrers[i]];\n            Debug(\"Processing referrals, now with value\", \"\", p.referrals.referrerLevels[p.referrals.referrers[i]], totalWeight);\n        }\n        if(totalWeight > 0)\n            rewardPerPoint = p.referralBudget / totalWeight;\n        for(i=0; i<p.referrals.referrers.length; i++){\n            uint currentReward = rewardPerPoint * p.referrals.referrerLevels[p.referrals.referrers[i]];\n            mt.transfer(p.referrals.referrers[i], currentReward);\n            p.referralBudget -= currentReward;\n            delete p.referrals.referrerLevels[p.referrals.referrers[i]];\n            delete p.referrals.referrers[i];\n        }\n    }\n\n    function adjustToRewardPeriod(uint what) pure public returns (uint adjustedWhat){\n        return ((what + rewardPeriod - 1) / rewardPeriod) * rewardPeriod;\n    }\n\n    function addBudget(PromotionData storage p, uint allocation, uint duration) public{\n        uint adjustedDuration = adjustToRewardPeriod(duration);\n        p.duration += uint32(adjustedDuration);\n        Budget memory newBudget;\n        newBudget.switchTime = p.start + p.duration;\n        newBudget.allocation = (allocation * (100 - p.referralShare)) / 100;\n        p.budgets.push(newBudget);\n        p.remainingAllocation += newBudget.allocation;\n        p.referralBudget += allocation - newBudget.allocation;\n    }\n\n    function endPromotion(PromotionData storage p, InteractionRecords storage r, address token)public{\n        require( msg.sender == p.provider);\n        require( p.start+p.duration < block.number);\n        processBacklog(p, r, token);\n        processReferralBacklog(p, token);\n        MediaToken mt = MediaToken(token);\n        mt.transfer(p.provider, p.remainingAllocation + p.referralBudget);\n        selfdestruct(p.provider);\n    }\n\n    function getReferral(PromotionData storage p, address referrer, uint32 level) public{\n        if(p.referralShare == 0)\n            return;\n        if(level == 0)\n            return;\n        uint32 value = 10000;\n        for( uint i = 1; i<level; i++)\n            value = value * (100 - p.referralDecrease) / 100;\n\n        if( p.referrals.referrerLevels[referrer] == 0 )\n            p.referrals.referrers.push(referrer);\n        p.referrals.referrerLevels[referrer] += value;\n        Debug(\"referral added with value\", \"\", value, level);\n    }\n\n    function recordReferrers(PromotionData storage p,address[4] referrers) public{\n        if(referrers[0]!=address(0))\n            getReferral(p, referrers[0], 1);\n        for(uint32 i=1; i<referrers.length; i++ ){\n            if(referrers[i]!=address(0)){\n                getReferral(p, referrers[i], i);\n            }\n        }\n    }\n}\n/*\n *Contract Promotion keeps data of and handles an individual promotion. Please note that methods addVerificationAuthority\n * and endPromotion can't be accessed via proxy must be called directly on the Promotion contract\n */\ncontract Promotion{\n    event PromotionInteraction(\n        uint interaction,\n        address indexed user,\n        string indexed url,\n        string additionalData\n    );\n\n    event PromotionForwardedInteraction(\n        uint interaction,\n        address indexed payout,\n        string indexed url,\n        string additionalData\n    );\n\n    uint32 constant public rewardPeriod=2;\n    promotionLibrary.PromotionData private _data;\n    promotionLibrary.InteractionRecords private _records;\n    address private _token;  //<pointer to the media token contract\n    address private _parent; //<pointer to the Promotions contract\n    string[] private _verificationAuthorities; //<list of verifiers the contract owner trust. If empty, anu user, also not verified, can participate\n    IdentityVerification private _identityVerificationService; //<pointer to the identity verification contract\n    mapping(address => bool) private _forwarders;\n\n    /*\n     * Constructor. Creates new Promotion instance and initial budget allocation.\n     * @param start starting block\n     * @param duration promotion duration, in blocks\n     * @param budget allocated budget in media tokens\n     * @param url identifier of the content being promoted\n     * @param allowLikeIndifferent allow Like/Indifferent interactions\n     * @param allowShare allow Share interaction\n     * @param allowConsumption allow Consume interaction\n     * @param allowSurvey allow Survey interaction\n     * @param token pointer to the media token contract\n     * @param parent pointer to the Promotions contract\n     * @param identityVerificationService pointer to the identity verification contract\n     * @param referralShare Percentage of the budget reserved for referral rewards\n     * @param referralDecrease Decrease of the reward per level in per cent. I.e. when level 1 reward is 1000, level2 is 1000/100*referralDecrease\n     */\n    function Promotion(uint start, uint duration, uint budget, string url, bool allowLikeIndifferent,\n        bool allowShare, bool allowConsumption, bool allowSurvey, address token, address parent,\n        address identityVerificationService, uint referralShare, uint referralDecrease) public{\n        uint consumerBudget = (budget * (100 - referralShare)) / 100;\n        _token = token;\n        _parent = parent;\n        require(start >= block.number );\n        _data.provider = tx.origin;\n        _data.url = url;\n        _data.start = start;\n        _data.duration = uint32(promotionLibrary.adjustToRewardPeriod(duration));\n        _data.remainingBudgetAllocation = consumerBudget;\n        _data.remainingAllocation = consumerBudget;\n        _data.allowLikeIndifferent = allowLikeIndifferent;\n        _data.allowShare = allowShare;\n        _data.allowConsumption = allowConsumption;\n        _data.allowSurvey = allowSurvey;\n        _data.lastProcessedBlock = start;\n        _data.referralBudget = budget - consumerBudget;\n        _data.referralShare = uint32(referralShare);\n        _data.referralDecrease = uint32(referralDecrease);\n        promotionLibrary.Budget memory initialBudget;\n        initialBudget.switchTime = start + duration;\n        initialBudget.allocation = consumerBudget;\n        _data.budgets.push(initialBudget);\n        _identityVerificationService = IdentityVerification(identityVerificationService);\n        _forwarders[parent] = true;\n    }\n\n\n\n    /*\n     * Add another budget allocation (slot) to the promotion. The new slot is attached at the end of the promotion,\n     * extending it by given duration. Every promotion can have different slots of different\n     * duration to support reward discrimination based on time. E.g. The promoter can allocate 1000 MEDIA for the first\n     * hour rewards and 500 MEDIA for  the second hour. In such example, the initial slot (1000 MEDIA/1hour) is created\n     * by constructor (setting duration to 240 and budget to 1000, while second slot is added by this method (adding\n     * another 240 duration and 500 allocation).\n     * @param allocation Funds allocated to this slot\n     * @param duration Duration of this slot\n     */\n    function addBudget(uint allocation, uint duration) public{\n        promotionLibrary.addBudget(_data, allocation, duration);\n    }\n\n\n    /*\n     * Add verification authority the promoter trust. Only users verified by one of the authorities can participate in the promotion and push interactions.\n     * @param authority Authority name\n     */\n    function addVerificationAuthority(string authority) public{\n        require(msg.sender == _data.provider);\n        _verificationAuthorities.push(authority);\n    }\n\n    /*\n     * Check if a particular user has been verified (KYC performed) by any of the authorities.\n     * @param user User whose KYC status is being verified\n     * @return True if user KYC has been performed by some of the added authorities, False otherwise\n     */\n    function checkAuthority(address user) public view returns (bool){\n        if(_verificationAuthorities.length == 0)\n            return true;\n        for(uint32 i =0; i<_verificationAuthorities.length; i++)\n            if(_identityVerificationService.checkVerificationStatus(_verificationAuthorities[i], user))\n                return true;\n        return false;\n    }\n\n\n    /*\n     * Ends the promotion contract, finish remaining backlog and return funds.\n     */\n    function endPromotion() public{\n        promotionLibrary.endPromotion(_data, _records, _token);\n    }\n\n    /*\n     * Record a new interaction.\n     * @param user Address of the user who performed the interaction\n     * @param interaction Interaction type. Shall be one the value of one of the InteractionType\n     * @param additionalData Anything else that can be relevant (survey answers etc.)\n     * @param referrers List of referrers. Referrer levels are determined by their index in the array, e.g. referrers[1] defines level 1 referrer. refferers[0] denominates the dApp, can be set to address(0).\n     */\n    function recordInteraction(address user, uint32 interaction, string additionalData, string url, address [4]referrers) public{\n        require(_forwarders[msg.sender] == true || tx.origin == user);\n        require(checkAuthority(user));\n        promotionLibrary.getInteraction(interaction, _data, _records, user, _parent, _token);\n        promotionLibrary.recordReferrers(_data, referrers);\n        PromotionInteraction(interaction, user, url, additionalData);\n    }\n\n\n    /*\n     * Record a new interaction, forwarded from trusted partner. This interaction can be done from user outside of the\n     * network, and the payout goes directly to the partner to distribute. The partner can also include itself into the list of referrers.\n     * @param user Address of the user who performed the interaction\n     * @param interaction Interaction type. Shall be one the value of one of the InteractionType\n     * @param additionalData Anything else that can be relevant (survey answers etc.)\n     * @param referrers List of referrers. Referrer levels are determined by their index in the array, e.g. referrers[1] defines level 1 referrer. refferers[0] denominates the dApp, can be set to address(0).\n     */\n    function recordForwardedInteraction(address payout, uint32 interaction, string additionalData, string url, address [4]referrers) public{\n        require(_forwarders[msg.sender] == true);\n        promotionLibrary.getForwardedInteraction(interaction, _data, _records, payout, _token);\n        promotionLibrary.recordReferrers(_data, referrers);\n        PromotionForwardedInteraction(interaction, payout, url, additionalData);\n    }\n\n    /*\n     * the contract allow interactions to be recorded from verified providers as well. The forwarders can collect the reward and distribute at their will.\n     * This function add one to the list of forwarders.\n     */\n    function addForwarder(address forwarder) public{\n        require(msg.sender == _data.provider);\n        _forwarders[forwarder] = true;\n    }\n\n    /*\n     * Return the address of the provider. Useful for contract factory to do security checks.\n     */\n    function getProvider() public view returns(address){\n        return _data.provider;\n    }\n\n}\n",
  "sourcePath": "/Users/ejossev/working/codec/media-token/contracts/Promotion.sol",
  "compiler": {
    "name": "solc",
    "version": "0.4.18+commit.9cf6e910.Emscripten.clang"
  },
  "schemaVersion": "1.0.1",
  "updatedAt": "2018-02-22T14:06:51.337Z"
}